:100000000C943C0B0C94590B0C94590B0C94590BFD
:100010000C94590B0C94590B0C94590B0C94590BD0
:100020000C94590B0C94590B0C94590B0C94590BC0
:100030000C94590B0C94590B0C94590B0C94590BB0
:100040000C94F82B0C94590B0C94590B0C94590BE1
:100050000C94590B0C94590B0C94590B0C94590B90
:100060000C94590B0C94590B88481259EEEDBA0DAB
:10007000800882E0D6BDAF0F93083AB9DEBD8B0B86
:100080008008E0E8DEDD0B220389E8BF6EECAB2AD6
:10009000388908826DDDEBFB00084A11EEAD1BBC10
:1000A0004220D115FAFF5DC720400411F6757DDBB3
:1000B00002454752AA75DD5E3A444100EE5D74DFA9
:1000C000A2500708AA5D545D3A405DC9E2FF555D44
:1000D0003640D451A27F4515BA207DB5006A21244F
:1000E000AE2EB5F5A284250500D62A00EE8480FD4B
:1000F000A4BD7D540E015041F85F1D55AFC4D15DC4
:10010000846E7D042D20097DE88EDB51BAE812054E
:1001100082BDDEEF3B01942060D4C1AB3B779508F4
:10012000E155FFEFAC00500227EAC5D6BD0E151011
:10013000E87BBFB7422A1521EA80C56FAED65022B0
:1001400000547677F5F722101F147ABDD545231198
:10015000007179F7D5C543041F74F856F51723527B
:100160000070B97AAA46A3226A9BAC0900D221EC9E
:10017000F716AF061470A2F3F55E0F981C447AC30D
:10018000F5F6221E1084AA73D6DE8EDA924AE802B1
:10019000F6E00378424E76435EDB52EE4310DABB64
:1001A000D6BB8A22149222BADEFAAE90500AA83E3A
:1001B000F7BABA6B00E20248FD36FA6B209283026E
:1001C000FE3638FA10A4AFAE773781004090DDBE1E
:1001D000EEBB84A04288BE0BF6DD22FA42918B036F
:1001E0001BBAA8D850A3AE8AA0222809AA6EADDDFA
:1001F0000EC00511E85EDDB53F104804E85ADDEF9A
:100200002ACE15A86A7B51030201F779F76B224CBD
:100210002008B761B67F254D24C471D9BF15DB8F87
:1002200014578A3A557DEB8A700042B85B7D6F8B1C
:100230001057C239BB157B6B82441001FEFD7E5BFB
:100240001050547255455747471F00746DF0AA5619
:100250003817BE126E55EBB602F109A2DA1BAD28B3
:10026000084EA16D6A63AC482455530575455AF193
:1002700051ED120514A8B657550F105144B8BDDF03
:10028000EF2395542A7AC1056AC39FF4006AD455B6
:10029000754B015014FAAF17B7ABBAC2E0A8A81853
:1002A0000E0E82F3BAA23E59E2F78B430844A968C6
:1002B000AA6EBD0BFB2A00A9AEA8EA2F08EE0BE13F
:1002C000EE82AA2B88BBB8B83E881282E8EFBB3614
:1002D0008ABAE2E4BB2A2E3E88A0E490AABA8EC76E
:1002E0002382A252B8FBA8180812AA56DBB6A202B3
:1002F0008A938BF8D836FA03428002BAFBFAF610DA
:1003000022A2907BAEBFDFC20820156EAD77C0027F
:1003100020527776751F442344405F76DF7744434D
:1003200090D25DDADA16458B4ABC77391B0711AFDC
:1003300040F27F22DD57558B08105039FFDE156DD6
:100340008802FF47DD7654720424551BAEF5414008
:1003500028215C77ED9F71C501EA5C54DCA2011590
:100360005728F47F40AB060000000000FEEFFF7F3F
:10037000AA424200A268EF7D8E4E42503AE4FA56FD
:10038000E2BF8A44AE88A07682ED3F5CBE808A5789
:1003900080EFE8422A80226AFABF7F6F92140545F7
:1003A000BA51545012FC7D5BBE21255222758D57E7
:1003B000AA07211D0A7C7D70AE26C95AA2701D4A6B
:1003C000EE17D05B02729D48FE56D55B12C00748FF
:1003D000C61AB16392729C48D65BB56F12428540D3
:1003E000FEFBBF7F0000000070FC3F0E57A7E5EA50
:1003F000422DB4421AA0055852ADB44AF6A5A56FD5
:10040000523FFD4A5682416A00A8140095AFF5A9F3
:10041000372245ECE2B66D473824241C6DFDBFB68B
:10042000C48181231DDC3BB870B18D0EC717E8E392
:1004300074500B2ED6D66A6B9003C009377E7FECC2
:100440009043C20935766FACA743C2E5B0FA5E0DA2
:1004500007524AE0ECD7EA37810240813F7E7EFCBA
:10046000950000A9C0D5AB036A4783084015BEDBE1
:100470005E7D2B494310A15B6A7B35102802947E78
:10048000EBEEFE42AE424A6E02EADA04F82E02DEDB
:10049000A37BF70BAA10247828F68E4BFB84DA5A3C
:1004A00022BE1212EEABB8DA0280AE8BE8AA802828
:1004B0004EFEBA6DEB0BEA448AE08255B8B73E5F58
:1004C0000E856800B8B5C27722E1565DAF3712508D
:1004D00004A1F61FDEBD04444084757D763D2509E8
:1004E00023956DDDB8C54805B72AD60A24E214A8BD
:1004F000B5AB71BF80085D15EA5F44D0BBD01E0765
:100500008A7774F1DA02175C0058D20957CD5AE3A2
:10051000D077082A5D02FBBB55EB5101444A5CECE5
:1005200056FBC626148A5CACB6BA5607A22000DC7D
:10053000B7FBDB0980A072FBDA3746001291ECDFD3
:10054000BBD785002094F0EDB6DD0509137157BDCA
:1005500076275204108DDBEE7BD8888B108FBB2A58
:100560007BB8AEA2080D8428080403827A5DAE2A07
:10057000CA55EBBB5B740120400775EF6EBC1525B7
:10058000029154ACAFDD7E87A804222CFDB6EBE5CA
:1005900090100A0DBAD75E491250425DF7FE5F44D3
:1005A0000082D25DEBBB064828A0F26FBE3B9E38AE
:1005B000008EB063AEE21629E2B754AF368455A080
:1005C000826DF50AF70857FA906D4423BD4855B877
:1005D00080EED702EB0892AB88AF36A92EA2E43B9F
:1005E000A2FB8EAA2A12E208AAAAAAAA2222220200
:1005F000AAAAAA6AAAAAAA2AAAAAAAAAAAAAAA2A9B
:10060000AAAAAAAAAAAAAA2AAAAAAA6A88888828F2
:10061000ABDEFE7FBA8A081492EAEB51D6A86A557F
:10062000900E22443DFA7877A0AB02112BAA7E5C93
:10063000A88248C1FEAADB57A2384054BAE26E1520
:10064000203E04F5AF2ADF17E06284702E28FF5B9E
:10065000AA7F41412312776CEE7620094022BBAD80
:100660007BEF89384020EC8DA38AAEC5AABA081565
:100670002EA2BB75AA2A8810A2EFBDFBBA200800E3
:10068000A8B5EE5E228728507EF1AE7B421422C2CE
:10069000EADFFB1A88008072BFFEEF17201A3A7457
:1006A000EBD26227889848F5FACA1E84A26FF4BE7E
:1006B0003A2907AAA36DDD08084090EB7FFBD642DC
:1006C000488A125E1AAB5B4352E14069DEB7EE0F17
:1006D0004280A4A8E8FBAF222F22A8BE60EB2E0A1E
:1006E0004E28A45A648BB64252500F15DA5DB87585
:1006F00082C80A50DE1ADA1708B243D2FA167A47CD
:100700008AF40A74BA05A84723D52F726E55805A09
:10071000041CD510F6D65F7A50105523DB7F446950
:100720008AC06F3BEA6E41022A02DDFBAA7B4910B8
:10073000A0207F7FAEEE15020202F4FBFB7B1520AA
:100740000851577B5E1D4111484474DDEE5505018B
:10075000247477FD6E45DC012A5741F4A8517707D0
:100760000D1554D565D5451400000040F6FFFF6F08
:10077000120000445EFFFE1D48A103516E0BEE7592
:1007800022FAA044FA93BE5F8ABA1054EA8E5655F4
:100790000AA25255EABEDB55AA0450548AEEDF572E
:1007A000FA22025102AABB15AAAB885C2A88AB5672
:1007B000EA3F2E502A846A578AD5C251FA94985C2F
:1007C0008AB1DF513AA5105FA2ADFB41AE28327D60
:1007D000AAED8605082730757EFDFF5D42000048C2
:1007E000EEFFFF5F000000004E702084E21DBFD7C7
:1007F0003AC00170825FFC57F8C0055C0D7A554520
:10080000E1435C57355A47119548D07DD47B574515
:10081000450171117DED15BC2184DC87EFB745ECF6
:10082000022457217E6D506B08415D2A6B57118B56
:100830002064F5FFBF752751205D7415AA45477DDB
:100840002F577401807107FDEA4D54084E68D7EFA9
:10085000780B11204ABAFD6AEA82002E06BAEEA28F
:10086000F7AA2B8E1122E138AA4B883A00DABB8214
:10087000BB00A1EEA0F72F283B24E1ABA0B62B8153
:10088000FF02A9FB80FB8B002E22A97E64AB2F2ADE
:100890002E2AA1A8E488AF033FBEE0FEE0ABAD2066
:1008A0000288A47EBABE3740AA12905FEAFADE4AF6
:1008B000AFA08A5AA8AFAA0A2220B8788E7DAF03CB
:1008C000F8288ADE2EAABA106283AAD54FB9A004EE
:1008D000188DAFFD4221A1106E77BD7B2B1D8108C5
:1008E000AA71BF6A2014812210140008DDC1FDDE48
:1008F000451580021CFFBAEAD1058A284554DB8FD2
:100900005C7F90E417D5F7ADC0810421DFF67DADA3
:1009100000441087FDEDD5F15588145754BFB755E5
:1009200041921055F7B6F705101050FD56DF5724C9
:100930005C54C56D45075504555C50D5F0D11F1565
:100940009F54F0B5B0474721051055E7F4FF5D040B
:100950001745487740F46D11EB4500D588F0BD157B
:10096000BB5695DC8814C40644A5E244752D8A5E06
:1009700010E9EA4AD7030A6201BAE82EBC8E3D6844
:10098000A73B874AB060D46E1BCA5F444A1FD0772A
:100990005AC44510425FEF7DF60129080075BDDF9E
:1009A000FEDD91084850B77DEB1D104500D0D76D96
:1009B0005D5701294401F56DDF7F150000025D7F61
:1009C000DB7BC0C58AC07F75DE6F29408000AC75B7
:1009D000BE6EA544AA42B176AAEA9F50820AC05DC3
:1009E000FEFE7F57000000000429426CB5A31F459E
:1009F00025A9C817BC0A1D5191FA495C3700DD775B
:100A0000905F04125D46D7FAC9F055486B56D01D69
:100A1000285315C16E19F55744CD45540D60DD7549
:100A2000E03F40040A90DDFDAFBB09A42402EC8F37
:100A3000AEBB86A820A2BF22FFAFA2FBA8A8B62A01
:100A4000A20B906AAAEADF2A0AA01000ABAFDEFF71
:100A5000AE0A8022A0D8F76E2F0A822AA1EBAAAA9A
:100A60003DBE3F00E000A06DE842B5168B1EA554C8
:100A7000E8C2AD412B5A005F80D36B50DE5EC85B8D
:100A800070105F4317C7555E415DF502744184FAEB
:100A90004655BF185455884356D7AB585412A0CA70
:100AA000FEFFFF7F00000000FEFFFF7F2362554531
:100AB000E84E555D0E18115164D3BB5535962A4446
:100AC000A4B46275AF25480724BD1D756D11714032
:100AD00041B705DF57145D01D0B575551A8410551F
:100AE000CAD5DE756A548424800312C8F6F6FA5B10
:100AF0008414424AAFD6DE682A52400BFA5E5BD8B5
:100B00002000F10A6E7345EA0819FD03BACB21688B
:100B10000A79AF2AAA0FB87FBE608348002EFA5B1D
:100B2000FF6B2B482A20A26FAA6A0B28802EBA627C
:100B3000FE608336080ED894AA788FDDA2DB2107E9
:100B40002A027DF0FBEEC12709047DB5BCEF5501FB
:100B5000860001F7F4EEFD4126221155AC8A5D14A2
:100B6000E6EA50772C8A474100000000AADEEB7FBE
:100B7000AE4B2A61AA62AB2B222E2A6EAA62EB2010
:100B8000FE2B2A6A02A8EB2EFA2E2968A2BBEB4B99
:100B9000368208588476AE43F624236E9276F62881
:100BA0003E60A36BE03709084A60FB7EDE2E8102BF
:100BB000926BAB58D620B952928F2B5A36BA6873C3
:100BC000A0820E5EFAF8FA408A0DA25FDAA4AA703B
:100BD0008AF62E4A6222685B36BB4350A2107A45E1
:100BE000BED60E5D0054A0450A09486F6A7D5D2897
:100BF0002A49D56D6ADD85402A11F46F607D470A68
:100C00003E49525B625D5FC10A40407DF87D7F01D5
:100C10002E00007BAB7777D100522557AA5BAD0140
:100C20002A0A28FCBEDBAD072A722750A207F0DE95
:100C30008E7C9F72F841C1062B755754890770D777
:100C4000DDF41750445EFD5DF602205000FAAF75EA
:100C5000750BE80404690BFED54DB9221461836855
:100C6000772DDA2E40A84A840688EF1AF4AA88D293
:100C700086AEBE56B2E080509E07BC17D4D2217219
:100C80008516FD163D5007C261FFB56A4F01942ECF
:100C900062EBB5A44E7AA58F6A0BB5E0485A850E73
:100CA0006AD3FDE20216040ED6D3AFE39476A938D8
:100CB000DF04ADAAD0752122461CEF0A7457A5EBBC
:100CC00017503C085057E1EF365E0B008243AAFAFA
:100CD0002ADEE803FE930BAA0038BAAAB69382BEB6
:100CE000E2DEB6880A40A4EEFDBAA47001AAB617E7
:100CF000DD22127454EABA15F72A927400AAC705C5
:100D0000FE2BDCDC008A8140DFD8D476808395140A
:100D10003EBEB45D62A391482A39F76F6A6C912098
:100D2000CE45BD7B605181003E75F7FB604515687F
:100D30003D54F14AA55F9B5BAD40D240A0EF081641
:100D4000AFAAFBF32000505AEEFB5E4BAA8A126258
:100D5000A2E8F60EAA8D42642E305A7DEAA74A090F
:100D600040AD5FBD5520000100000000EE7FFD7F1B
:100D700082D24549D646105D92545F41FA72C277DD
:100D800012DA7655564B1254446147417EEFFF7F8D
:100D900002405421B65D576D12494044FE7F1F75D5
:100DA00000405145FE5FFB7F44412A481E7BAB6BF0
:100DB000424A0022FA5AFF7F82400000BEF7FF7FBE
:100DC0000A544511FA45545402DC7647FA49027533
:100DD0006ADBFA550A5240445ADB5F6D7250C041DB
:100DE000DEFF7F7F0000000055C4D8004095825E82
:100DF0007BD5BAD20055827AAFD5BA60A490923B27
:100E00002EDEBA6AE452220235DAEE7AE592844A9C
:100E100030DABEE2E550820EBDDFBA78119192134E
:100E20005DD5BA76455402127DD7FEDE00808892E9
:100E3000BEDFAEB72244A200C8D68AF66A96BE14B8
:100E40003AD3A25782590840BECCDE4EE88650E81D
:100E50000AD0DA8BE25E42283EC2DAEEE09A8A24B9
:100E60002AD2DEAEAA1782007F880E82C1EBE82A62
:100E70001D20AEAAD5AF222A5581EBBF41F728220B
:100E80007785ABAA00F4A82B7E872B8842F0E8FB7D
:100E90005B858F2048FDA27B5A012E110AFD605B05
:100EA0007E373E404081E37E6EADA80828A88AEBDD
:100EB0008E2AFA08AABBAEBB2891A8A07FB7AF3A8A
:100EC0004A1103A26857F8BB0251A3A87B57AA2A6C
:100ED0002078AB828B4A0AFEA8DAEA02AA0A2278B4
:100EE000FAFBAA4F42802A1888A84051BAAA57157F
:100EF000AB2B14DD80E8B649D70B146B5478F12383
:100F0000514117895F5D41EF40557B057AF72070AD
:100F10004380AF255EBF20B70484AA93F5FDABBA2A
:100F200045542808D001EDFB1F3F45084269517F19
:100F3000680B5D512D7A451BA402557AB17E572B63
:100F400095545480DFD5D7BE48109214EE93BBD58C
:100F5000A2391350AE6CDE46A029831C3D83EAC142
:100F600070D53A9F061182C1BAAE8BA38A20288A17
:100F7000A88BA32B22B83AE8EE2EEAAEA8E2A28212
:100F8000BB8AAEFA00A82810AEFECB57A2209E4620
:100F9000B98BB0542BFEA57EA2882C22FAE2E96A16
:100FA000C03B8B0B9EA2DABEB43A909016EEBFBE49
:100FB000D00408A29EAFEB0A20BA40EAEE827FBBC3
:100FC000083A0901BEA3AD75A2B8641CA8AE4DC70E
:100FD0008E082154A35AF77DB8525145AEFE1F50DA
:100FE000AA5AF45D88000510AFFA7D0F0100407920
:100FF000FD5F550B055155A074DD5DBF1511510105
:10100000545D17FD75D1D155441D1B515DD4F14779
:10101000C0175D1D5DC245D5477B74556DEA4744D9
:1010200020A35E5DBEB90A11880468DDEDF5FF45B9
:1010300045240574F56EF40320EA4578FD2A7413FF
:101040004DA0475E1C3FF0CAB5AD9F5AF520C010B9
:10105000A4EA7DF68F4EC404A05A977DAE52344365
:10106000EAD6617508104C00A8A102112AACDA5525
:10107000AB2B4A44A2AA2A7F388A88086BF3FF7AEE
:10108000401A800A1FD3BBFBC8180A009AE2ABBF04
:10109000CA0FBA905EF892D6500DF454DCE1850682
:1010A000451FF8BE75C1032A147DFE6B75510B41B7
:1010B0004444E87DDE7F2F05824688F5FAD063043C
:1010C0008A5619F7A212C405BEFB72F490881A154D
:1010D000B6DEDA4714925254FD3754D55581111DAE
:1010E00045345D51116541470AE141D86A0B55838A
:1010F000487A55BEDA42D382825818EABE4FF54F7D
:10110000A0704154EE07574188785177EB435F0454
:10111000285CC86DEA4D7D490A25455BEA90544933
:101120008AD6526CBA445825A2FDCFF52E028114FE
:10113000E478BFC69546916A5D70D40A40DF57BA1D
:101140003E8092A890AF3A2FD7B84261148B5C3D95
:10115000752A419141632FD75C5C7954C245C355D0
:101160007A7514104204F57F0C82E138653B0CB2AD
:1011700035EAD787B12090BDA47FF7A0B640252AD5
:10118000E416AD6E2EFE84C8BA08FE1A886F01639D
:10119000ABCC5D4EAA66F460A830117B2E8E4F4B0F
:1011A000E2A1606A38743A438A06737EAA78D6222E
:1011B0003AD35CE872D7112F165CF6A05CC756AE26
:1011C0007175C22A5B24DB62DA8D130E12E5A4A8C6
:1011D000D80F2EBF8DD86337ED5E399028089DB5A6
:1011E000AEEB44248020766F00000000240027002E
:1011F0002A0018242418242418003C3C0000000075
:1012000000001824241824241800000000E0E00046
:1012100000001824241824241800000000000000F6
:101220003C3C182424182424180000000007070060
:1012300000003C20201008080800FFEAEABE0C5716
:10124000D05F3C20201008080800FFEAEABE0457DF
:10125000D05F3C20201008080800FFEAAABE04570F
:10126000D05F3C20201008080800FF7555DF0A2BCE
:10127000E82F3C20201008080800FF7555DF022BDE
:10128000E82F3C20201008080800FF7575DF0A2BA6
:10129000E82F1824041C24241800FFC7E3E3E3C745
:1012A000D7D71824041C24241800FFC7E3E3E3C79E
:1012B000C7C71824041C24241800FFC7C7E3E3E3AE
:1012C000D7D71824041C24241800FFC7C7E3E3E37E
:1012D000C7C71824041C24241800FFC7C7C7E3E3AA
:1012E000EBCF1824041C24241800FFC7C7C7E3E36E
:1012F000E3C71824041C24241800FFC7C7C7C7E38A
:10130000EBEB1824041C24241800FFC7C7C7C7E34D
:10131000E3E31824041C24241800FFE3C7C7C7C74D
:10132000EBEB1824041C24241800FFE3C7C7C7C72D
:10133000E3E31824041C24241800FFE3E3C7C7C711
:10134000CFEB1824041C24241800FFE3E3C7C7C70D
:10135000C7E31824041C24241800FFE3E3E3C7C7F1
:10136000D7D71824041C24241800FFE3E3E3C7C7DD
:10137000C7C73C041C2020201C00FF000000000008
:1013800010383C041C2020201C00FF080000000036
:1013900010383C041C2020201C00FF080000000026
:1013A000081C3C041C2020201C00FF080000000832
:1013B000081C3C041C2020201C00FF18080008000A
:1013C000081C3C041C2020201C00FF1808080000FA
:1013D000081C3C041C2020201C00FF0018000008F2
:1013E000081C3C041C2020201C00FF0018000800E2
:1013F000081C3C041C2020201C00FF0000180000DA
:1014000010383C041C2020201C00FF00001000109D
:1014100010383C041C2020201C00FF00001010008D
:1014200010383C041C2020201C00FF00000000009D
:101430001038203028243C202000FF001C0400002D
:101440000000203028243C202000FF000C04040071
:101450000000203028243C202000FF000404040465
:101460000000203028243C202000FF000004040C51
:101470000000203028243C202000FF000000041C35
:101480000000203028243C202000FF000000003C09
:101490000000203028243C202000FF0000002038DD
:1014A0000000203028243C202000FF0000202030B5
:1014B0000000203028243C202000FF002020202095
:1014C0000000203028243C202000FF003020200095
:1014D0000000203028243C202000FF00382000009D
:1014E0000000203028243C202000FF003C000000A9
:1014F00000001824201020241800FF1C10000000F9
:1015000000041824201020241800FF041C100000E0
:1015100000001824201020241800FF0018080C00D8
:1015200000001824201020241800FF000018080CC8
:1015300000001824201020241800FF000000041CC4
:1015400010001824201020241800FF0000000004C0
:101550001C101824201020241800FF100000000088
:10156000041C1824201008043C00FF1C000000008C
:1015700000101824201008043C00FF101C0000007C
:1015800000001824201008043C00FF000808180080
:1015900000001824201008043C00FF000008081870
:1015A00000001824201008043C00FF000000001078
:1015B0001C001824201008043C00FF00000000005C
:1015C000101C1018101010103800FF180000000038
:1015D00000081018101010103800FF081800000044
:1015E00000001018101010103800FF00001808003C
:1015F00000001018101010103800FF00000018082C
:1016000000001018101010103800FF000000000833
:1016100018001018101010103800FF000000000013
:101620000818007E00007E81A581A599817E0000BA
:101630007E0000000000250028002B0004040404A4
:10164000040404040202020202020303030303036C
:101650000102040810204080010204081020010249
:101660000408102000000008000201000003040725
:10167000000000000000000011241FBECFEFD8E0E2
:10168000DEBFCDBF11E0A0E0B1E0E4EAFEE502C0BC
:1016900005900D92AC30B107D9F721E0ACE0B1E094
:1016A00001C01D92AD32B207E1F70E94422C0C94AA
:1016B000502F0C940000E6E6F6E12491E2E5F6E115
:1016C0009491EEE3F6E1E491EE23C9F0222339F0A0
:1016D000233001F1A8F4213019F1223029F1F0E092
:1016E000EE0FFF1FEE5CF94EA591B4912FB7F89461
:1016F000EC91811126C090959E239C932FBF089555
:101700002730A9F02830C9F0243049F72091800013
:101710002F7D03C0209180002F7720938000DFCFA2
:1017200024B52F7724BDDBCF24B52F7DFBCF2091AF
:10173000B0002F772093B000D2CF2091B0002F7D42
:10174000F9CF9E2BDACF3FB7F89480912901909181
:101750002A01A0912B01B0912C0126B5A89B05C0B0
:101760002F3F19F00196A11DB11D3FBFBA2FA92F20
:10177000982F8827BC01CD01620F711D811D911D1D
:1017800042E0660F771F881F991F4A95D1F7089589
:101790008F929F92AF92BF92CF92DF92EF92FF9281
:1017A0000E94A30B4B015C0182E3C82ED12CE12CDB
:1017B000F12C0E94A30B681979098A099B09683EDC
:1017C000734081059105A8F321E0C21AD108E10810
:1017D000F10888EE880E83E0981EA11CB11CC1148C
:1017E000D104E104F10429F7FF90EF90DF90CF904E
:1017F000BF90AF909F908F9008952FB7F89460910D
:1018000025017091260180912701909128012FBF19
:1018100008958F929F92AF92BF92CF92DF92EF92F4
:10182000FF920F931F93CF93DF936A017B01009781
:10183000E1F40E94FD0B4B015C010E94FD0B681955
:1018400079098A099B096C157D058E059F05A8F30A
:10185000DF91CF911F910F91FF90EF90DF90CF908C
:10186000BF90AF909F908F9008954C01B12CA12C08
:10187000A5019C01CB01B6010E94F22E28EE33E0B7
:1018800040E050E00E940E2F69017A0160E472E4AA
:101890008FE090E0A50194010E940E2F5695479588
:1018A00037952795E901220F331F220F331F890136
:1018B00005501109812C912C54018C149D04AE0407
:1018C000BF0431F281E00E945B0BC230D10518F0F9
:1018D000C8010197F1F780E00E945B0BC230D1058F
:1018E00018F0C8010197F1F78FEF881A980AA80A33
:1018F000B80AE3CF48EC50E060E070E084EF91E09C
:101900000E94090C40E951E060E070E08AEF90E04D
:101910000C94090CAF92BF92CF92DF92EF92FF929C
:101920000F931F93CF93DF93CDB7DEB7DA950FB642
:10193000F894DEBF0FBECDBF50E070E090E0E92F1D
:10194000E50FF0E0A1E0B0E0AC0FBD1FAE0FBF1F90
:101950009C93A1E8B0E0AC0FBD1FEA0FFB1F7083A2
:101960009F5F983061F7585F7F5F503839F7502F8D
:101970005901F8019FEF2E2F251B241708F463C08F
:10198000660F660F660F860F90E0E1E0F0E0EC0F67
:10199000FD1FE80FF91F2FEF2083E1E8F0E0EC0FC7
:1019A000FD1F8E0F9F1FDC012C938E010F5F1F4FB9
:1019B000FE01EF57FF4F60E020E0D8013D918D011F
:1019C0003F3FA1F0862F90E041E050E04C0F5D1FBB
:1019D000480F591FDA013C93308141E850E04C0F29
:1019E0005D1F840F951FDC013C936F5F2F5F319665
:1019F000203819F7809123010E94022FE92FF0E08F
:101A0000A1E0B0E0AC0FBD1FAE0FBF1F8C91D7019E
:101A10008C9341E850E04C0F5D1FE40FF51F80816F
:101A2000D6018C93D3950FB6F894DEBF0FBECDBF11
:101A3000DF91CF911F910F91FF90EF90DF90CF90AA
:101A4000BF90AF9008952191D5013D915D01220F86
:101A5000220F220F230F30E001E010E00C0F1D1FBA
:101A6000020F131FD8019C93A1E8B0E0AC0FBD1F7B
:101A70002A0F3B1FD9019C937ECFEF92FF920F93C9
:101A80001F93CF93DF93F82EE42EDB01FA0180E061
:101A90009E2F9E199F1538F0DF91CF911F910F91C6
:101AA000FF90EF90089591919F3F91F0282F30E0A3
:101AB0009C918B01020F131FE80198838F01015045
:101AC0001109E8019881240F351FE90198838F5F80
:101AD0001196DECF8032910598F46032710580F462
:101AE000FB0125E0EE0FFF1F2A95E1F7E40FF51F3C
:101AF000E80FF91F81E09081913019F080E008959E
:101B000081E008958032910578F46032710560F4C7
:101B100025E0660F771F2A95E1F7640F751F860F82
:101B2000971FFC01808108950196829730F46F5FC2
:101B30007F4F81E06232710508F080E00895BF9226
:101B4000CF92DF92EF92FF920F931F93CF93DF9389
:101B50007C01B42EE901062F660F110BC42E440F31
:101B6000DD08A901B601C8010E94820D813011F182
:101B70008230F9F40032110568F48FE18B1550F0D2
:101B800085E0CC0CDD1C8A95E1F7C00FD11FCC0D90
:101B9000DD1D1882F70180819181009719F001976E
:101BA00091838083F70180819181909322018093BA
:101BB000210180E0DF91CF911F910F91FF90EF9075
:101BC000DF90CF90BF900895AC01DB012FE730E0AC
:101BD00091E0FA01E20FF31FE491E7FF2BC09C9321
:101BE000E6FF2AC011969C931197E5FF29C0129633
:101BF0009C931297E4FF28C013969C931397E3FFDE
:101C000027C014969C931497E2FF26C015969C93C8
:101C10001597E1FF25C016969C931697E0FF24C008
:101C200017969C9317972150310918962F3F32072A
:101C300081F608951C92D4CF11961C921197D5CF9E
:101C400012961C921297D6CF13961C921397D7CF49
:101C500014961C921497D8CF15961C921597D9CF2D
:101C600016961C921697DACF17961C921797DBCF11
:101C7000AC01DB0130E020E091E0FA01E20FF31F5C
:101C8000E491E0FF2BC09C93E1FF2AC011969C9346
:101C90001197E2FF29C012969C931297E3FF28C088
:101CA00013969C931397E4FF27C014969C93149764
:101CB000E5FF26C015969C931597E6FF25C016965E
:101CC0009C931697E7FF24C017969C9317972F5F56
:101CD0003F4F18962038310581F608951C92D4CFD5
:101CE00011961C921197D5CF12961C921297D6CFAF
:101CF00013961C921397D7CF14961C921497D8CF93
:101D000015961C921597D9CF16961C921697DACF76
:101D100017961C921797DBCF409A409808959091A0
:101D20001C01992351F090910201982329F0909180
:101D30000001892392E009F090E0892F08950F9324
:101D40001F930E94FD0B00911D0110911E01209117
:101D50001F0130912001601B710B820B930B6F31BF
:101D600071058105910508F44CC00E94FD0B60933C
:101D70001D0170931E0180931F019093200180919B
:101D800002018093000110920201199903C091E0B1
:101D900090930201189905C090910201926090936E
:101DA00002014F9905C09091020194609093020145
:101DB0004E9905C0909102019860909302014D994F
:101DC00005C0909102019061909302014C9905C069
:101DD000909102019062909302014B9905C09091FD
:101DE00002019064909302019091020121E0891315
:101DF00001C020E020931C0189130E94FD0B81E0AB
:101E000001C080E01F910F9108958EBD0DB407FEB3
:101E1000FDCF0895882361F0813061F0823061F058
:101E2000833061F0843061F0853061F084E608959C
:101E30008CEB089588E5089584EF089580E908956E
:101E40008CE2089588EC0895880F683014F068508B
:101E50008F5FE82FF0E0E45FFE4F21E030E001C04B
:101E6000220F6A95EAF78081822B80830895603182
:101E700020F4883010F40C94240F0895EF92FF9210
:101E80000F931F93CF93DF93EA018B017A01E80E42
:101E9000F11CCE15DF0539F4DF91CF911F910F9121
:101EA000FF90EF9008956991F80181918F010E9450
:101EB000370FEFCF809101018823B9F080910101A4
:101EC0008130B1F0809101018230D9F0809101011F
:101ED000833089F080910101843081F0809101018B
:101EE000853079F482E390E0089584EF91E00895DD
:101EF00080E991E0089588EC90E0089584E690E010
:101F000008958CE291E00895FB01DC018C91823010
:101F100018F485E080830895823011F486E0FACFCA
:101F20009DEF980F923010F48BE0F4CF853011F4D0
:101F30008DE0F0CF863069F3873069F783E0EACF30
:101F4000CF93DF9381E00E94050FCCE0D1E089813F
:101F50000E94050F81E00E94050F88810E94050FF5
:101F6000409AA895409882E00E94050F8B810E94BC
:101F7000050F82E00E94050F8A810E94050F409A9A
:101F8000A895409883E00E94050F8D810E94050F5F
:101F900083E00E94050F8C810E94050F409AA8954E
:101FA000409884E00E94050F8F810E94050F84E015
:101FB0000E94050F8E810E94050F409AA8954098B7
:101FC00085E00E94050F89850E94050F85E00E942B
:101FD000050F88850E94050F409AA895409886E0D5
:101FE0000E94050F8B850E94050F86E00E94050F59
:101FF0008A850E94050F409AA895409887E00E9424
:10200000050F8D850E94050F87E00E94050F8C85C6
:102010000E94050F409AA895409888E00E94050FFD
:102020008F850E94050F88E00E94050F8E850E9413
:10203000050F409AA8954098DF91CF910895ECE064
:10204000F1E0119281E0EC31F807D9F70895EF92B1
:10205000FF920F931F93CF93DF938B0190E1899FA2
:10206000700111240E941F10D0E0C0E0E00EF11EAC
:10207000F701EC0FFD1F149110FF04C06C2F80E0DE
:102080000E94370F11FF04C06C2F81E00E94370FB0
:1020900012FF04C06C2F82E00E94370F13FF04C0B0
:1020A0006C2F83E00E94370F14FF04C06C2F84E074
:1020B0000E94370F15FF04C06C2F85E00E94370F78
:1020C00016FF04C06C2F86E00E94370F17FF04C074
:1020D0006C2F87E00E94370F2196C031D10541F661
:1020E000DF91CF911F910F91FF90EF900C94A00F73
:1020F000CF92DF92EF92FF92CF930E94FD0B6B0184
:102100007C01C0E00E949F0E882331F18091020182
:102110008F7741F044E150E060E070E084E893E0C4
:102120000E94090C80E20E948F0E823059F4809147
:1021300023018F5F80932301CF91FF90EF90DF9079
:10214000CF90089580E10E948F0E823029F4809113
:1021500023018F5F809323010E94FD0B6C197D0981
:102160008E099F096D3271408105910558F20E94D8
:10217000FD0B6B017C017894809123018F5F80932C
:102180002301C11107C062E276E180E00E942710BE
:10219000C1E0B8CF0E941F100E94A00FB2CF6031E3
:1021A000A8F4883098F4880F683014F068508F5F76
:1021B000E82FF0E0E45FFE4F81E090E001C0880F7F
:1021C0006A95EAF780959081892380830895CF935B
:1021D000DF93C82F6DE00E94CF106CE08C2F0E941F
:1021E000370F6EE08C2F0E94370FDFEFDC0F6DE0B2
:1021F0008D2F0E94370FCF5F6DE08C2F0E94370F1D
:102200006CE08D2F0E94370F6CE08C2F0E94370FEF
:102210006EE08D2F0E94370F6EE08C2FDF91CF91F3
:102220000C94370FCF93DF93C82F6DE00E94370FC8
:102230006CE08C2F0E94CF106EE08C2F0E94CF108C
:10224000DFEFDC0F6DE08D2F0E94CF10CF5F6DE0D0
:102250008C2F0E94CF106CE08D2F0E94CF106CE06D
:102260008C2F0E94CF106EE08D2F0E94CF106EE059
:102270008C2FDF91CF910C94CF105F926F927F9251
:102280008F929F92AF92BF92CF92DF92EF92FF9286
:102290000F931F93CF93DF936D3F0CF405C14295CD
:1022A000407FF901E40FF11DA1E09081911101C07F
:1022B000A0E0E2E0E40FC1E0C40FC20FD32FD11DB4
:1022C000B8809A2FB11092E0C3E0C40FE20FF32F51
:1022D000F11DC080C11093E0E4E0E40FC20FD32FE2
:1022E000D11DD880D11094E0E20FF32FF11D71E0E1
:1022F0005081511101C070E0C6E0C40FE5E0E40F69
:10230000E20FF32FF11DE080572FE11052E0E7E0DC
:10231000E40FC20FD32FD11DF880F11053E0C8E0B5
:10232000C40FE20FF32FF11DB081B11154E09517E6
:1023300008F4952FC20FD32FD11D51E0E881E11190
:1023400001C050E0CAE0C40FE9E0E40FE20FF32F50
:10235000F11DA080652EAA2011F0D2E06D2EEBE0D9
:10236000E40FC20FD32FD11D9880992011F0F3E014
:102370006F2ECCE0C40FE20FF32FF11D8080882078
:1023800011F0D4E06D2E691608F4692EC20FD32F18
:10239000D11D91E0E881E11101C090E0CEE0C40FD1
:1023A000EDE0E40FE20FF32FF11D7080592E77203E
:1023B00011F0F2E05F2E415FC20FD32FD11DC88113
:1023C000CC2311F0E3E05E2EF901E40FF11D408112
:1023D000442311F024E0522E252D561408F4262D06
:1023E000E82F082E000CFF0B2E0F3F2F311D293038
:1023F00031050CF0CDC067FD59C0262F220F220FEA
:10240000220F280FF801E20FF11D3081332311F064
:10241000A1114AC0E1E0E20FE00FF12FF11D308180
:10242000332311F0B11040C0E2E0E20FE00FF12FD2
:10243000F11D3081332311F0C11036C0E3E0E20F0B
:10244000E00FF12FF11D2081222311F0D1102CC0BB
:102450006F5F262F220F220F220F280FF801E20FA5
:10246000F11D3081332311F071111EC0E1E0E20F44
:10247000E00FF12FF11D3081332311F0E11014C072
:10248000E2E0E20FE00FF12FF11D3081332311F074
:10249000F1100AC0E3E0E20FE00FF12FF11D2081FF
:1024A000222331F0BB2321F081E062C06F3F81F233
:1024B0006E3F6CF16F5F67FD60E0E62FEE0FEE0F91
:1024C000EE0FE80FD801AE0FB11D2C91222311F0B1
:1024D0005111EACFA1E0AE0FA00FB12FB11D2C9189
:1024E000222311F0A110E0CFA2E0AE0FA00FB12F78
:1024F000B11D2C91222311F09110D6CFED5FE00F8A
:10250000F12FF11D2081222311F08110CDCF6F5FBB
:1025100067FD60E0660F660F660F860FF801E80F33
:10252000F11D2081222311F09111BECFE1E0E80FCF
:10253000E00FF12FF11D9081992311F07110B4CFAC
:10254000E2E0E80FE00FF12FF11D9081992311F0E7
:10255000C111AACF8D5F080F111D81E0F801908194
:10256000911101C080E091E0411101C090E0892308
:10257000DF91CF911F910F91FF90EF90DF90CF905F
:10258000BF90AF909F908F907F906F905F900895D5
:1025900082E0EECFEF92FF921F93CF93DF937C0107
:1025A000D0E010E0C0E0EC2FED0FEE0DFF2DF11D9F
:1025B0008081882321F0612F8C2F0E94370FCF5FFD
:1025C000C83089F7D85F1F5FD03861F7DF91CF91AE
:1025D0001F91FF90EF900895282FFB018091230118
:1025E000211100C1837009F03FC010821182128254
:1025F0001382148215821682178210861186128623
:10260000138681E08487158616861786108A118ABC
:10261000128A138A148A158A168A178A808F118E55
:10262000128E138E848F158E168E178E10A211A205
:1026300012A213A284A315A216A217A280A711A604
:1026400012A613A684A715A616A617A680AB11AAD4
:1026500012AA13AA84AB15AA16AA17AA80AF11AEA4
:1026600012AE13AE84AF03C18130D1F51082118256
:102670001282138214821582168217821086818735
:10268000128613868487858716861786108A118A94
:10269000128A138A148A158A168A178A808F818F64
:1026A000128E138E148E858F168E178E10A211A285
:1026B00012A213A214A215A216A217A280A781A784
:1026C00012A613A684A715A616A617A610AA11AAC5
:1026D00012AA13AA14AA15AA16AA17AA80AF3DC057
:1026E000823009F03FC0108211821282138214825C
:1026F00015821682178281E08087118612861386E2
:102700008487158616861786108A118A128A138A7C
:10271000148A158A168A178A108E118E128E138EBD
:10272000848F858F168E178E10A211A212A213A26B
:1027300014A215A216A217A280A711A612A613A66C
:1027400084A715A616A617A610AA11AA12AA13AA3C
:1027500014AA15AA16AA17AA10AE11AE12AE13AE7D
:1027600084AFA5C210821182128213821482158254
:1027700016821782108681E08187128613868487ED
:10278000158616861786108A118A128A138A148A69
:10279000158A168A178A808F118E128E138E148EC8
:1027A000858F168E178E10A211A212A213A214A248
:1027B00015A216A217A210A681A712A613A684A777
:1027C00015A616A617A610AA11AA12AA13AA14AA29
:1027D00015AA16AA17AA80AF11AE12AE13AE14AE88
:1027E00085AF97C1213009F0D6C167E00E94022F62
:1027F000911140C0108211821282138224831582AB
:1028000016821782208711861286138624872587D1
:1028100016861786108A118A128A138A148A158AD4
:10282000168A178A108E118E228F138E248F258F71
:10283000268F178E10A211A212A213A224A325A3E1
:1028400016A217A210A621A712A613A614A625A7A2
:1028500016A617A610AA11AA12AA13AA14AA15AA94
:1028600016AA17AA20AF21AF22AF13AE24AF15AE20
:1028700016AE6BC3913009F046C0108211821282ED
:10288000138214829583168217821086918712868E
:1028900013869487958716861786108A118A128A5E
:1028A000138A148A158A168A178A908F918F928FAD
:1028B000138E148E158E968F178E10A211A212A24F
:1028C00013A294A395A316A217A290A711A612A6CD
:1028D00013A694A715A616A617A610AA11AA12AA9F
:1028E00013AA14AA15AA16AA17AA90AF11AE12AE6F
:1028F00013AE94AF95AF96AF17AE809123018F5F63
:10290000809323010895923009F03FC01082118214
:1029100012821382148281E0858316821782808757
:102920008187128613861486858716861786108AF5
:10293000118A128A138A148A158A168A178A808F36
:10294000818F828F138E148E858F168E178E10A214
:1029500011A212A213A284A315A216A217A280A7E5
:1029600081A712A613A684A715A616A617A610AAB5
:1029700011AA12AA13AA14AA15AA16AA17AA10AE67
:1029800081AF12AE13AE84AF04C1933009F042C0E0
:1029900081E08083118212821382848315821682E1
:1029A000178280871186128613868487158616867D
:1029B0001786108A118A128A138A148A158A168A2F
:1029C000178A108E118E128E138E848F858F868FAC
:1029D000878F80A311A212A213A284A315A216A20C
:1029E00017A280A711A612A613A684A715A616A63D
:1029F00017A610AA11AA12AA13AA14AA15AA16AAEF
:102A000017AA10AE11AE12AE13AE84AF85AF86AF6B
:102A100087AF08959430E1F51082118212821382FB
:102A2000148215821682178281E080878187128640
:102A300013868487858716861786108A118A128ADC
:102A4000138A148A158A168A178A808F818F128EAC
:102A5000138E848F858F168E178E10A211A212A24C
:102A600013A214A215A216A217A280A781A712A6CC
:102A700013A684A785A716A617A610AA11AA12AA9C
:102A800013AA14AA15AA16AA17AA80AF81AF66CEF8
:102A9000953009F040C01082118212821382248383
:102AA0001582168217822087218712861386148644
:102AB000258716861786108A118A128A138A148A25
:102AC000158A168A178A108E218F228F138E248FD3
:102AD000258F168E178E10A211A212A213A224A364
:102AE00015A216A217A220A721A712A613A614A604
:102AF00025A716A617A610AA11AA12AA13AA14AAE5
:102B000015AA16AA17AA10AE21AF22AF13AE24AF92
:102B100025AF16AEF1CE108211821282138214827A
:102B200081E08583168217828087818712861386CB
:102B30008487158616861786108A118A128A138A48
:102B4000148A158A168A178A808F818F128E138EA7
:102B5000148E858F868F178E10A211A212A213A237
:102B600014A285A316A217A280A781A712A613A656
:102B700084A715A616A617A610AA11AA12AA13AA08
:102B800014AA15AA16AA17AA80AF81AF12AE13AE67
:102B900014AE85AFD9C164E10E94022F992309F4D4
:102BA00024CD913009F03FC010821182128213822D
:102BB00014821582168217821086918712861386D8
:102BC0009487958716861786108A118A128A138A27
:102BD000148A158A168A178A908F918F128E138EF7
:102BE000148E958F168E178E10A211A212A213A208
:102BF00014A215A216A217A290A791A712A613A617
:102C000094A715A616A617A610AA11AA12AA13AA67
:102C100014AA15AA16AA17AA90AF11AE12AE13AE37
:102C200094AF95AF76CF923009F45DCD933009F033
:102C300040C0108211821282138214821582168281
:102C40001782108681E08187128613868487158615
:102C500016861786108A118A128A138A148A158A90
:102C6000168A178A808F118E128E138E148E858F7E
:102C7000168E178E10A211A212A213A214A215A2D0
:102C800016A217A210A681A712A613A684A715A69E
:102C900016A617A610AA11AA12AA13AA14AA15AA50
:102CA00016AA17AA80AF11AE12AE13AE14AE85AF3E
:102CB000DFCD943009F040C010821182128213825D
:102CC00081E084831582168217828087118612869E
:102CD00013868487858716861786108A118A128A3A
:102CE000138A148A158A168A178A108E118E828F7B
:102CF000138E848F858F868F178E10A211A212A239
:102D000013A284A385A316A217A210A681A712A6B8
:102D100013A614A685A716A617A610AA11AA12AA6A
:102D200013AA14AA15AA16AA17AA80AF81AF82AF58
:102D300013AE84AF15AEEDCE9530E1F51082118261
:102D400012821382148281E0858316821782108694
:102D50008187128613868487858716861786108A50
:102D6000118A128A138A148A158A168A178A808F02
:102D7000818F828F138E148E158E868F178E10A2E0
:102D800011A212A213A284A385A316A217A280A740
:102D900011A612A613A684A715A616A617A610AAF2
:102DA00011AA12AA13AA14AA15AA16AA17AA80AFC2
:102DB00011AEE7CD963009F4A9CD973009F4E8CDEE
:102DC000983009F429CE993009F03FC01082118261
:102DD0001282138281E08483158216821782808793
:102DE0008187128613861486858716861786108A31
:102DF000118A128A138A148A158A168A178A108EE3
:102E0000818F828F138E848F858F168E178E10A2DE
:102E100011A212A213A284A315A216A217A280A720
:102E200081A712A613A614A685A716A617A610AAF0
:102E300011AA12AA13AA14AA15AA16AA17AA10AEA2
:102E400081AF82AF13AE84AFCBCC9A3009F463CE9E
:102E500010821182128213829B30C9F5148281E0A4
:102E600085831682178280878187828713861486DE
:102E7000858716861786108A118A128A138A148A01
:102E8000858B168A178A808F818F828F138E148E7E
:102E9000858F168E178E10A211A212A213A214A251
:102EA00085A316A217A280A781A782A713A614A69E
:102EB00085A716A617A610AA11AA12AA13AA14AAC1
:102EC00085AB16AA17AA80AF81AF82AFEECE9C3039
:102ED000F1F581E08483858386831782108681875C
:102EE000128613861486858716861786108A118A9D
:102EF000128A138A848B158A168A178A808F818F8B
:102F0000828F138E848F158E168E178E10A211A2AB
:102F100012A213A214A285A316A217A210A681A71B
:102F200012A613A684A785A786A717A610AA11AA7A
:102F300012AA13AA14AA15AA86AB17AA80AF81AF4A
:102F400082AF13AE14AE15AE86AF17AE08959D30A6
:102F5000C9F5148281E08583868317821086818774
:102F6000128613868487858716861786108A118AAB
:102F7000128A138A848B158A168A178A808F818F0A
:102F8000828F138E148E158E868F178E10A211A22B
:102F900012A213A214A285A386A317A210A681A72A
:102FA00012A613A684A785A716A617A610AA11AA6B
:102FB00012AA13AA14AA15AA86AB17AA80AF81AFCA
:102FC00082AF4FCB9E3069F581E084838583168282
:102FD00017821086818712861386148685878687D6
:102FE0001786108A118A128A138A148A158A868B88
:102FF000178A808F818F828F138E848F158E168E05
:10300000178E10A211A212A213A284A385A316A246
:1030100017A210A681A712A613A614A685A786A795
:10302000C4CF9F30D9F581E084838583868317825E
:103030001086818712861386848785878687178600
:10304000108A118A128A138A848B158A868B178AB2
:10305000808F818F828F138E848F158E868F178E2F
:1030600010A211A212A213A284A385A386A317A261
:1030700010A681A712A613A684A785A786A717A6C0
:1030800010AA11AA12AA13AA84AB15AA86AB17AA72
:1030900080AF81AF82AF13AE84AF55CF9031C9F509
:1030A00081E08483858386831782808781878287F6
:1030B00013868487858786871786108A118A128AE5
:1030C000138A848B858B868B178A808F818F828F62
:1030D000138E848F858F868F178E10A211A212A255
:1030E00013A284A385A386A317A280A781A782A782
:1030F00013A684A785A786A717A610AA11AA12AAA5
:1031000013AA84AB85AB86AB17AA80AF81AF82AF21
:1031100039CC9131C9F581E08483158216821782FA
:10312000808711861286138684878587868717860F
:10313000108A118A128A138A148A158A868B178A32
:10314000108E118E828F138E848F858F868F178EAF
:1031500010A211A212A213A284A385A386A317A270
:1031600010A611A682A713A614A615A686A717A6B1
:1031700010AA11AA12AA13AA84AB85AB86AB17AA10
:1031800080AF11AE12AED4CD148215821682178292
:1031900081E08087923171F511868287138684875A
:1031A000858786871786108A118A128A138A848BEC
:1031B000858B168A178A108E818F128E138E848FBC
:1031C000858F168E178E10A211A212A213A214A21E
:1031D00015A216A217A280A781A782A713A684A76B
:1031E00015A686A717A610AA11AA12AA13AA84AB1D
:1031F00085AB72CA81878287138684878587868795
:103200001786108A118A128A138A848B858B168AF4
:10321000178A808F818F128E138E848F858F168EE2
:10322000178E10A211A212A213A214A215A216A206
:1032300017A280A781A782A713A684A785A786A720
:1032400017A610AA11AA12AA13AA84AB85AB1BCC8D
:10325000019708F40895EFE9FFE03197F1F700C016
:103260000000209123012F5F20932301F1CF1F93B2
:10327000CF93DF93CDB7DEB728970FB6F894DEBFB4
:103280000FBECDBF182F0E941F10111117C061E093
:1032900083E00E94240F61E084E00E94240F62E03A
:1032A00083E00E94240F62E084E00E94240F63E028
:1032B00083E00E94240F63E084E019C0113009F01C
:1032C0004FC067E081E00E94240F68E081E00E9427
:1032D000240F67E082E00E94240F68E082E00E94F1
:1032E000240F67E083E00E94240F68E083E00E94DF
:1032F000240F0E94A00F88E0E3E0F1E0DE011196C8
:1033000001900D928A95E1F744EF51E060E070E0A2
:1033100084E690E0143088F4812F90E0880F991FA4
:1033200021E030E02C0F3D1F820F931F4CE251E053
:1033300060E070E0FC01808191810E94090C0E9494
:103340001F100E94A00F84E690E028960FB6F89414
:10335000DEBF0FBECDBFDF91CF911F910C94281916
:103360001230B1F46CE083E00E94240F6CE084E042
:103370000E94240F6DE083E00E94240F6DE084E042
:103380000E94240F6EE083E00E94240F6EE094CF31
:10339000133009F0AECF67E086E00E94240F68E0AA
:1033A00086E00E94240F67E085E00E94240F68E019
:1033B00085E00E94240F67E084E00E94240F68E00B
:1033C0007BCF28E4815008F4089520937C0095E396
:1033D0009A95F1F7000090917A00906490937A00AA
:1033E00090917A0094FFFCCF90917A009061909335
:1033F0007A00409178005091790090912301940FC8
:1034000090932301DFCFCF93DF9380912301DFE0FF
:1034100080FD2EC0D0E0C0E06D2F8C2F0E94370FB2
:10342000CF5FC830C9F70E94A00F2FEF86E791E069
:10343000215080409040E1F700C00000DF5FD031B4
:1034400051F7DF91CF9108956D2F8C2F0E94370F88
:10345000CF5FC830C9F70E94A00F2FEF86E791E039
:10346000215080409040E1F700C00000D15048F367
:10347000C0E0EACF2F923F924F925F926F927F927D
:103480008F929F92AF92BF92CF92DF92EF92FF9274
:103490000F931F93CF93DF93CDB7DEB7CF50D140BB
:1034A0000FB6F894DEBF0FBECDBF13E0CF5FDE4F87
:1034B0001883C150D1403E012EEF621A720AF30107
:1034C00010830E94FD0BCB5FDE4F79836883C5506C
:1034D000D1400E94FD0BC65FDE4F79836883CA50DE
:1034E000D1400E94FD0BC45FDE4F79836883CC50CE
:1034F000D1400E945A0FC25FDE4F99838883CE501D
:10350000D14019834E01F1E88F0E911C81E0F40146
:1035100080831A83118263019E012F5F3E4F7901E0
:103520008401CE0101962C019C0142E062E083E01F
:103530000E948A0C10922201109221010E941F10F9
:103540000E94A00F11E0212CC75FDE4F1882C950E6
:10355000D14082E0A82E93E0B92E22E0322ECC5F3B
:10356000DE4F1882C450D140CD5FDE4F1882C35069
:10357000D1403401A895809123018F5F809323016E
:1035800080E40E948F0E823069F40E947A0C0E94BF
:103590007A0C5E0131E8A30EB11CCE0101964C01FC
:1035A0008501CEC10E949F0E082F882309F479C09F
:1035B00081E00E948F0E823059F4809123018F5F49
:1035C0008093230192E0CC5FDE4F9883C450D140BA
:1035D00082E00E948F0E823059F4809123018F5F28
:1035E00080932301E3E0CC5FDE4FE883C450D140F9
:1035F00084E00E948F0E823051F4809123018F5F0E
:1036000080932301CC5FDE4F1882C450D14088E004
:103610000E948F0E823059F4809123018F5F809336
:103620002301F1E0CC5FDE4FF883C450D14080E14C
:103630000E948F0E823029F4809123018F5F809346
:10364000230180E20E948F0E823009F062C10E9445
:103650007810809123018F5F809323010E941F10B7
:10366000A401B201832D0E943E0FC75FDE4FF88197
:10367000C950D140FF2321F06A2D8B2D0E94370FB6
:10368000222061F0CE5FDE4F6881C250D140CF5F13
:10369000DE4F8881C150D1400E94370F0E94A00F99
:1036A0003AC10E94FD0BC65FDE4F28813981CA50A6
:1036B000D140621B730B63337105A8F00E94FD0BB0
:1036C000C65FDE4F79836883CA50D140C75FDE4F43
:1036D0003881C950D14081E03827C75FDE4F388339
:1036E000C950D14011E00E94FD0BC45FDE4FE8815C
:1036F000F981CC50D1406E1B7F0B693C710558F0AD
:103700000E94FD0BC45FDE4F79836883CC50D140AB
:10371000F1E02F2611E00E94FD0BCB5FDE4F2881E8
:103720003981C550D140621B730BC25FDE4F888167
:103730009981CE50D1408617970708F0EAC0809152
:1037400023018F5F809323010E94FD0BCB5FDE4F2F
:10375000688379838A839B83C550D140CC5FDE4FD9
:103760009881C450D140923009F057C0CD5FDE4FF0
:10377000E881C350D140E11105C1CF5FDE4F8881A0
:10378000C150D1408B1109C0CE5FDE4F8881C2503D
:10379000D1408A1102C0339401E02FEF230D211193
:1037A0007EC0B982F301A082CD5FDE4FF881C350A5
:1037B000D140F1118BC0A3940023C1F0809121016D
:1037C0009091220101969093220180932101FE01A4
:1037D000EE5FFE4F6F019E012F5F3E4F7901830127
:1037E0009201432D6A2D8B2D0E948A0C809123011A
:1037F0008F5F80932301DE01AF57BF4FF2018E2F01
:103800008419831508F47EC037E03B1508F4BFCE59
:103810008FE08A1508F022CFBACECC5FDE4FF88158
:10382000C450D140F33079F4CD5FDE4F2881C350CE
:10383000D140213009F4A1CF23E0CD5FDE4F2883B2
:10384000C350D1409ACFCC5FDE4F3881C450D140B5
:1038500031110EC0CD5FDE4F8881C350D140823020
:1038600009F48BCFCD5FDE4F1882C350D14085CF96
:10387000CC5FDE4F9881C450D140913009F07DCFAC
:10388000CD5FDE4FE881C350D140E33009F475CFFE
:10389000F1E0CD5FDE4FF883C350D1406ECF822F71
:1038A00090E0AC0141505109F201E40FF51F308165
:1038B000F201E80FF91F3083460D571DFA013081E0
:1038C000860D971DFC013083215069CFCD5FDE4FFF
:1038D0002881C350D140213011F4B3946DCFCD5F16
:1038E000DE4F3881C350D140323011F4AA9464CFF6
:1038F000CD5FDE4F8881C350D140833009F05CCF6B
:10390000BA945ACF91918D91B91279CF8A1177CF0C
:103910003ECE1111A3CE10E02DCE2FEF36E781E081
:10392000215030408040E1F700C00000F801619173
:103930008F01F40181914F010E94CF100E94A00FCE
:10394000802F8A19831548F30E941F100E94031AC2
:10395000C15FDE4F0FB6F894DEBF0FBECDBFDF9163
:10396000CF911F910F91FF90EF90DF90CF90BF907C
:10397000AF909F908F907F906F905F904F903F900F
:103980002F900895F2E085CF2F923F924F925F9251
:103990006F927F928F929F92AF92BF92CF92DF925F
:1039A000EF92FF920F931F93CF93DF93CDB7DEB7C4
:1039B000CD54D1400FB6F894DEBF0FBECDBF0E94EC
:1039C000FD0B1B010E94FD0BCB5BDE4F79836883EF
:1039D000C554D1400E94FD0BC95BDE4F79836883DB
:1039E000C754D1400E945A0F880F991FC75BDE4F02
:1039F00099838883C954D1401092220110922101E9
:103A00000E941F100E94A00FBB24B394412C03E01E
:103A100010E021E0CC5BDE4F2883C454D140F12C70
:103A20004E013FED831A3EEF930A3E0141E8640EDA
:103A3000711CCE0101966C01C35BDE4F8882CD54B0
:103A4000D140A895809123018F5F8093230180E46A
:103A50000E948F0E823001F50E947A0C0E947A0C2F
:103A60000E94031AC35BDE4F0FB6F894DEBF0FBE91
:103A7000CDBFDF91CF911F910F91FF90EF90DF901D
:103A8000CF90BF90AF909F908F907F906F905F90FE
:103A90004F903F902F9008950E949F0EE82E88230C
:103AA00009F486C04D9915C0809102018061809310
:103AB0000201CC5BDE4F9881C454D140913009F0B3
:103AC00070C044244394A2E0CC5BDE4FA883C4546E
:103AD000D14081E00E948F0E823029F48091230131
:103AE0008F5F8093230182E00E948F0E823041F429
:103AF00010160CF40150809123018F5F80932301F5
:103B000084E00E948F0E823029F4809123018F5F20
:103B10008093230188E00E948F0E823041F40730A9
:103B20000CF40F5F809123018F5F8093230180E26B
:103B30000E948F0E823009F0A1C10E9478108091FE
:103B400023018F5F80932301E1E0CF5BDE4FE883A9
:103B5000C154D1400E941F1010162CF46FE08FEF5B
:103B6000800F0E94370F6FE0802F0E94370F6EE0AA
:103B7000802F0E94370F07302CF46FE081E0800F18
:103B80000E94370FA401BE016F5F7E4F8F2D0E94F0
:103B90003E0FA301B601812F0E943E0F0E94A00F8D
:103BA00075C1B1E0CC5BDE4FB883C454D14091CF36
:103BB0000E94FD0BCB5BDE4F28813981C554D1407B
:103BC000621B730B6F31710508F470C00E94FD0B0E
:103BD000CB5BDE4F79836883C554D140A401BE011D
:103BE0006F5F7E4F8F2D0E943D0DF82E442089F08F
:103BF0003EE1381770F090E0E1E0F1E0EC0FFD1FDE
:103C0000E80FF91F0083880D991D2EE0DC012C932D
:103C1000F394F401A401842F88198F1588F09E0174
:103C20002F5F3E4F8E2FC35BDE4F9881CD54D14026
:103C3000891B8F15C0F5CE018F579F4F56012BC0A2
:103C4000DA018D91AD0187FDE6CF9D01215031094B
:103C50008150D9018C93DFCFD5015D915D01DC01ED
:103C60004D91CD01D9016C91651315C0508154134C
:103C700012C0BFEFB083AC01415051096FEFDA01C0
:103C80006C9340912101509122014F5F5F4F5093FF
:103C90002201409321014A2D4C194117E8F22F5F70
:103CA0003F4F3196BFCF412CBB24B3940E94FD0BF4
:103CB00062197309C75BDE4FA881B981C954D1402D
:103CC000A617B70708F0CEC00E94FD0B1B0180911C
:103CD00023018F5F80932301F301B1E0CF5BDE4FBF
:103CE000B883C154D1408E2F8619811708F492C031
:103CF000A301B601812F0E943D0D182F8091230151
:103D000069E00E94022F492F20E0241394C0BB24B5
:103D1000B3940E94FD0BC95BDE4FE881F981C75463
:103D2000D1406E1B7F0B6F31710508F4ADC01123BC
:103D300009F4AAC0809123018170C55BDE4F88839E
:103D4000CB54D14080912301103108F492C08F7080
:103D5000582EA52CB12C96012A0D3B1DCE5BDE4FB3
:103D600039832883C254D140D901BC91C45BDE4F52
:103D7000B883CC54D1400E94FD0BC95BDE4F7983E0
:103D80006883C754D140809123018F5F80932301C2
:103D9000CE5BDE4FE881F981C254D1408081C55BA2
:103DA000DE4FF881CB54D140F11179C0181644F49C
:103DB0008150CE5BDE4FA881B981C254D1408C9333
:103DC000B601FE01EF57FF4FCF018A0D9B1DAC0CD2
:103DD000BD1CE514C1F0DC013C9121E0D5015C91F2
:103DE000DB014C91541320E041E05081531340E03B
:103DF000242349F037FD07C0C45BDE4F2881CC5433
:103E0000D140D5012C93E3946F5F7F4F31961E1103
:103E1000E0CFA0CE808187FD04C08F5F80311CF48D
:103E20008083319660CF2FEF2083CF5BDE4F1882E7
:103E3000C154D140F6CF17FD13C030912301812F1B
:103E400090E0F601E80FF91F37703083860D971D5B
:103E5000DC011C921F5F809123018F5F80932301FF
:103E60002F5F53CFB1E0CF5BDE4FB883C154D14059
:103E700050CF612F0E94022F592E6BCF31E0CF5BC4
:103E8000DE4F3883C154D140B11064CEB12CCF5B2A
:103E9000DE4F4881C154D1404111D3CDDFCD8730B1
:103EA00044F48F5FCE5BDE4FE881F981C254D1408C
:103EB0008083809123018F5F8093230181CF2F9294
:103EC0003F924F925F926F927F928F929F92AF92AA
:103ED000BF92CF92DF92EF92FF920F931F93CF93F7
:103EE000DF93CDB7DEB7CC50D4400FB6F894DEBF29
:103EF0000FBECDBFCF5FDB4F19821882C150D440B7
:103F00000E94FD0BC75FDB4F79836883C950D440A3
:103F10000E94FD0BC55FDB4F79836883CB50D44093
:103F20008091230163E20E94022F9150923208F0A7
:103F30002DC0E92FF0E0EC55F04E80912301BE0139
:103F40006F5F7F4F0C94302F91209920A120A920E2
:103F5000B120B920C120C920D120D920E120E920F9
:103F6000F120F920012109211121192121212921E3
:103F700031213921412149215121592161216921D1
:103F80007121792181218921912199218091230118
:103F9000BE016F5F7F4F87FF05C088E691E10E94F9
:103FA000380E04C088E691E10E94E40D9E012F5F67
:103FB0003F4F3901CC24CA94DC2CEE24E394F12C3D
:103FC000CB5FDB4F19821882C550D440362C272C8A
:103FD000C7010197C95FDB4F99838883C750D440DD
:103FE000CD5FDB4F19821882C350D440432D522D30
:103FF000C95FDB4F68817981C750D440CD5FDB4F0B
:1040000088819981C350D4400E94820D582E81111D
:104010005FC2CD5FDB4FA880B980C350D44021E0A0
:10402000A21AB108432D522DB601C5010E946A0D96
:1040300011E0813009F010E0432D522DB601CD5F23
:10404000DB4F88819981C350D4400E946A0D813032
:1040500009F41E5FCD5FDB4F88809980C350D44048
:104060003FEF831A930A432D522DB601C4010E94DB
:104070006A0D813009F41C5F432D522DC95FDB4F5F
:1040800068817981C750D440C4010E946A0D813093
:1040900009F4185F432D522DB701C4010E946A0D27
:1040A000813009F4105F432D522DB701CD5FDB4FF6
:1040B00088819981C350D4400E946A0D813009F4EF
:1040C000105E432D522DB701C5010E946A0D81304B
:1040D00009F4105C432D522DC95FDB4F6881798153
:1040E000C750D440C5010E946A0D813009F41058B0
:1040F0008091230180FF0DC0809123018F5F809309
:104100002301173F59F0173E49F0133F39F0133E92
:1041100029F01F3D19F01F3909F013C1552453949C
:1041200016C187FF03C088EE90E139CF88EE90E199
:104130003BCF87FF03C088E690E131CF88E690E16E
:1041400033CF87FF03C088EE9FE029CF88EE9FE042
:104150002BCF87FF03C088E69FE021CF88E69FE052
:1041600023CF87FF03C088EE9EE019CF88EE9EE044
:104170001BCF87FF03C088E69EE011CF88E69EE054
:1041800013CF87FF03C088EE9DE009CF88EE9DE046
:104190000BCF87FF03C088E69DE001CF88E69DE056
:1041A00003CF87FF03C088EE9CE0F9CE88EE9CE049
:1041B000FBCE87FF03C088E69CE0F1CE88E69CE05A
:1041C000F3CE87FF03C088EE9BE0E9CE88EE9BE04C
:1041D000EBCE87FF03C088E69BE0E1CE88E69BE05C
:1041E000E3CE87FF03C088EE9AE0D9CE88EE9AE04E
:1041F000DBCE87FF03C088E69AE0D1CE88E69AE05E
:10420000D3CE87FF03C088EE99E0C9CE88EE99E04F
:10421000CBCE87FF03C088E699E0C1CE88E699E05F
:10422000C3CE87FF03C088EE98E0B9CE88EE98E051
:10423000BBCE87FF03C088E698E0B1CE88E698E061
:10424000B3CE87FF03C088EE97E0A9CE88EE97E053
:10425000ABCE87FF03C088E697E0A1CE88E697E063
:10426000A3CE87FF03C088EE96E099CE88EE96E055
:104270009BCE87FF03C088E696E091CE88E696E065
:1042800093CE87FF03C088EE95E089CE88EE95E057
:104290008BCE87FF03C088E695E081CE88E695E067
:1042A00083CE87FF03C088EE94E079CE88EE94E059
:1042B0007BCE87FF03C088E694E071CE88E694E069
:1042C00073CE87FF03C088EE93E069CE88EE93E05B
:1042D0006BCE87FF03C088E693E061CE88E693E06B
:1042E00063CE87FF03C088EE92E059CE88EE92E05D
:1042F0005BCE87FF03C088E692E051CE88E692E06D
:1043000053CE87FF03C088EE91E049CE88EE91E05E
:104310004BCE87FF03C088E691E041CE88E691E06E
:1043200043CE87FF03C088EE90E039CE88EE90E060
:104330003BCE87FF03C088E690E031CE88E690E070
:1043400033CE1F3C09F4EACE1F3809F4E7CE809142
:10435000230181FF0AC01F3711F4539406C01F3395
:10436000E1F31E37D1F31E33C1F38091230182FFA5
:104370000AC01D3F11F4539412C01C3FE1F3193FD2
:10438000D1F3183FC1F3123EB1F3133AA1F3123A3D
:1043900091F3163B81F3163F71F3173B61F3809164
:1043A000230183FF0EC01E3811F453940AC01B383A
:1043B000E1F31A38D1F31E3DC1F31B3DB1F31A3DB1
:1043C000A1F38091230184FF0EC01A3311F453949A
:1043D00016C01E32E1F31A32D1F31B36C1F31F3679
:1043E000B1F31B37A1F3183B91F3183E81F3183A50
:1043F00071F31D3A61F31D3E51F31D3B41F3809172
:10440000230185FF0EC0193B11F453940AC01C3BD5
:10441000E1F31C3AD1F3193AC1F3193EB1F31C3E52
:10442000A1F38091230186FF0EC0123F11F4539433
:1044300016C0163EE1F3173AD1F3133BC1F3123B1A
:10444000B1F3163AA1F31B3C91F31B3981F31E39EA
:1044500071F31E3C61F31A3C51F31A3941F3809118
:10446000230187FF03C01E3621F45394552041F1E8
:104470000AC01F3241F01A3731F01B3221F01B33D2
:1044800011F01A3699F7CD5FDB4FE881F981C350FF
:10449000D440E60DF71D82E08083809123018F5F79
:1044A00080932301CB5FDB4F28813981C550D440F5
:1044B0002F5F3F4FCB5FDB4F39832883C550D440FC
:1044C000809123018F5F8093230183E00E94E11993
:1044D000CD5FDB4F88819981C350D4400196CD5F79
:1044E000DB4F99838883C350D440809709F07ECDF9
:1044F000A89590E2690E711C2FEFE21AF20A3FEFC5
:10450000C31AD30A81E2E816F10409F061CDCB5F4A
:10451000DB4F28813981C550D440CF5FDB4F3983D1
:104520002883C150D4408091230134E0839FC0018F
:104530001124E1E0F0E0EC0FFD1FE80FF91F2081EE
:1045400021114BC0382F3F71732E25E0969587952A
:104550002A95E1F7182FCF5FDB4F88819981C150F1
:10456000D44090932201809321010E941F100E9449
:10457000A00F512C412CE12CDD24D394F12C00E030
:1045800033243394A895809123018F5F8093230176
:1045900080E40E948F0E823051F50E947A0C0E94B6
:1045A0007A0C0E94031AC45FDB4F0FB6F894DEBF8B
:1045B0000FBECDBFDF91CF911F910F91FF90EF9074
:1045C000DF90CF90BF90AF909F908F907F906F9033
:1045D0005F904F903F902F9008958F3F23E0920778
:1045E00018F40196A895A5CF90E080E0FBCF0E943B
:1045F0009F0E882309F4EDC04D99C9C08091020136
:10460000806180930201809123018F5F8093230159
:10461000EE24E39481E00E948F0E8230E1F4E110F9
:10462000BAC0CC24CA94C10E9E012F5F3F4F4C2DBF
:10463000672DCE018F5F9B4F0E949F0D882309F449
:10464000B0C0809123018F5F80932301809123016B
:104650008F5F8093230182E00E948F0E8230E1F40D
:10466000E110A1C0CC24CA94C70C9E012F5F3F4F1C
:10467000412F6C2DCE018F5F9B4F0E949F0D882391
:1046800009F496C0809123018F5F8093230180916C
:1046900023018F5F8093230184E00E948F0E82307C
:1046A000E1F4E11087C0CC24C394C10E9E012F5FBA
:1046B0003F4F4C2D672DCE018F5F9B4F0E949F0D6A
:1046C000882309F47DC0809123018F5F80932301AB
:1046D000809123018F5F8093230188E00E948F0ED9
:1046E0008230E1F4E1106EC0CC24C394C70C9E016B
:1046F0002F5F3F4F412F6C2DCE018F5F9B4F0E944C
:104700009F0D882309F463C0809123018F5F8093FC
:104710002301809123018F5F8093230180E20E9417
:104720008F0E823009F08AC00E9478108091230198
:104730008F5F809323010E941F10C12E012E000C59
:10474000DD0837E0C31AD108CF0CD11CF7FCDA948E
:10475000612C872C072C000C9908800E911C07FDFA
:104760009A9484E0881A9108B12CA12CAE014F5F75
:104770005F4FB601C4018A0D9B1D0E94820D8130DE
:1047800009F060C0662D8A2D0E94370F5FC0E12CB2
:10479000F12C00E03FCF81ECF8160CF457CFFA94DF
:1047A00055CF1C2D53CF013C0CF471CF01506FCF6E
:1047B0007C2C6DCF9FE39F150CF48ACFF39488CFA8
:1047C0001C2D86CF00340CF0A4CF0F5FA2CF7C2C21
:1047D000A0CFF8940E94FD0BC75FDB4F2881398181
:1047E000C950D440621B730B6333710560F00E94A3
:1047F000FD0BC75FDB4F79836883C950D440789441
:104800004324DD24D394F8940E94FD0BC55FDB4F55
:1048100028813981CB50D440621B730B693C7105F0
:1048200060F00E94FD0BC55FDB4F79836883CB503E
:10483000D44078945324DD24D3947894D1107BCF42
:10484000D12CA0CE823011F451109CCF9FEFA91A29
:10485000B90A28E0A216B10409F088CF3FEFC31AC5
:10486000D30A639480E168127FCF8E2D8325842143
:1048700021F067E084E00E94240F0E94A00FCF5F28
:10488000DB4F88819981C150D440892BC9F687CEEE
:104890002F923F924F925F926F927F928F929F9250
:1048A000AF92BF92CF92DF92EF92FF920F931F933E
:1048B000CF93DF93CDB7DEB7C75CD1090FB6F894BD
:1048C000DEBF0FBECDBFC953DF4F8883C75CD0406A
:1048D0000E94FD0B1B010E945A0FCB53DF4F99839F
:1048E0008883C55CD0401092220110922101FE0104
:1048F000EF57FF4F9E012F5F3F4F59016F01AE16DB
:10490000BF0609F013C20E941F100E94A00FB6013B
:10491000C953DF4F8881C75CD0400E94EC1273E01E
:10492000E72EECEF9E2EF12CCC53DF4F1882C45CA7
:10493000D04031E0CF53DF4F3883C15CD040882472
:104940008394A895809123018F5F8093230180E455
:104950000E948F0E823009F45BC40E949F0E682E65
:10496000882309F405C281E00E948F0E612C8230F9
:1049700069F4809123018F5F8093230141E0CF533D
:10498000DF4F4883C15CD0406624639482E00E947C
:104990008F0E8230E1F4809123018F5F8093230199
:1049A00077247A947E0C5FEF751609F4C3C18501F4
:1049B00096014F2D692D872D0E943D11882309F402
:1049C000C0C181E0CF53DF4F8883C15CD04088E015
:1049D0000E948F0E823009F5809123018F5F8093B2
:1049E0002301772473947E0CB7E0B71508F4B1C1A6
:1049F000850196014F2D692D872D0E943D11882339
:104A000009F4AEC1809123018F5F8093230121E0DF
:104A1000CF53DF4F2883C15CD04080E10E948F0ECE
:104A2000823069F4809123018F5F8093230151E0EC
:104A3000CF53DF4F5883C15CD0406624639480E23B
:104A40000E948F0E823009F0F5C20E94781080918A
:104A500023018F5F809323016110F9C27F2C81E0D5
:104A6000CF53DF4F8883C15CD040662463940E949B
:104A70001F10C5010E94CA12172D1295107F01E068
:104A8000010FF601E10FF11D8081882321F0692DCE
:104A90008E2D0E94370F442443944E0C62E0F62E74
:104AA000F10EF601E00FF11D8081882321F0692DC0
:104AB000842D0E94370F52E0552E5E0C43E0410FCB
:104AC000CE53DF4F4883C25CD040F601EF0DF11D9D
:104AD0008081882321F0692D852D0E94370F03E006
:104AE0000E0D54E0510FCD53DF4F5883C35CD040BF
:104AF000F601CE53DF4F8881C25CD040E80FF11D34
:104B00008081882321F0692D802F0E94370FFF2498
:104B1000F394F90C95E0910FCE53DF4F9883C25C6C
:104B2000D040F601CD53DF4FA881C35CD040EA0FDF
:104B3000F11D8081882321F06F2D8E2D0E94370F6B
:104B4000B6E0B10FCD53DF4FB883C35CD040F60160
:104B5000CE53DF4F2881C25CD040E20FF11D80812F
:104B6000882321F06F2D842D0E94370F37E0310FFD
:104B7000CE53DF4F3883C25CD040F601CD53DF4FB8
:104B80004881C35CD040E40FF11D8081882321F06F
:104B90006F2D852D0E94370F58E0510FCD53DF4FF9
:104BA0005883C35CD040F601CE53DF4F8881C25C8E
:104BB000D040E80FF11D8081882321F06F2D802FD8
:104BC0000E94370F42E0F42EF90C99E0910FCE537A
:104BD000DF4F9883C25CD040F601CD53DF4FA881F0
:104BE000C35CD040EA0FF11D8081882321F06F2D36
:104BF0008E2D0E94370FBAE0B10FCD53DF4FB8832F
:104C0000C35CD040F601CE53DF4F2881C25CD04058
:104C1000E20FF11D8081882321F06F2D842D0E94E9
:104C2000370F3BE0310FCE53DF4F3883C25CD040AB
:104C3000F601CD53DF4F4881C35CD040E40FF11D36
:104C40008081882321F06F2D852D0E94370F5CE035
:104C5000510FCD53DF4F5883C35CD040F601CE5384
:104C6000DF4F8881C25CD040E80FF11D808188232E
:104C700021F06F2D802F0E94370F33E0F32EF90CB7
:104C80009DE0910FCE53DF4F9883C25CD040F60178
:104C9000CD53DF4FA881C35CD040EA0FF11D808166
:104CA000882321F06F2D8E2D0E94370FBEE0B10FAB
:104CB000CD53DF4FB883C35CD040F601CE53DF4FF6
:104CC0002881C25CD040E20FF11D8081882321F051
:104CD0006F2D842D0E94370F115FF601CD53DF4FEA
:104CE0003881C35CD040E30FF11D8081882321F01F
:104CF0006F2D852D0E94370FF601E10FF11D808188
:104D0000882321F06F2D802F0E94370F0E94A00F63
:104D1000CF53DF4F4881C15CD040423009F496C286
:104D2000CF53DF4F1882C15CD04070C21292E7CDE2
:104D3000F72C07CE91E0CF53DF4F9883C15CD04072
:104D400046CEE72CA1E0CF53DF4FA883C15CD04013
:104D50003ECE31E0CF53DF4F3883C15CD0405DCED3
:104D6000E72C41E0CF53DF4F4883C15CD04055CEA4
:104D70000E94FD0B62197309CB53DF4FA881B981E3
:104D8000C55CD040A617B70708F056C10E94FD0BBE
:104D90001B01809123018F5F80932301792C9394D1
:104DA000850196014F2D692D8E2D0E943D11813078
:104DB00021F0BCE0B9150CF04BC2872D880F880F8D
:104DC000880F982F9E0DEF2DE295E07F21E02E0FAA
:104DD000D601AE0FB11D3C91332331F0D501A90F9F
:104DE000B11D97FDBA958C9262E06E0F2C0D3D2D92
:104DF000311DD9012C91222349F021E0290FA50171
:104E0000420F511D27FD5A95DA018C9223E02E0F97
:104E1000D601A60FB11D3C91332341F032E0390F8A
:104E2000D501A30FB11D37FDBA958C9244E04E0F0A
:104E30002C0D3D2D311DD9012C91222341F09D5F78
:104E40009501290F311D97FD3A95D9018C9298E073
:104E5000980F9E0D25E02E0FD601A40FB11D3C9199
:104E6000332331F0D501A90FB11D97FDBA958C926E
:104E700066E06E0F2C0D3D2D311DD9012C912223A2
:104E800049F021E0290FA501420F511D27FD5A9538
:104E9000DA018C9227E02E0FD601A60FB11D3C91AE
:104EA000332341F032E0390FD501A30FB11D37FD97
:104EB000BA958C9248E04E0F2C0D3D2D311DD90135
:104EC0002C91222341F09D5F9501290F311D97FD03
:104ED0003A95D9018C9290E1980F9E0D29E02E0F02
:104EE000D601A40FB11D3C91332331F0D501A90F98
:104EF000B11D97FDBA958C926AE06E0F2C0D3D2D79
:104F0000311DD9012C91222349F021E0290FA5015F
:104F1000420F511D27FD5A95DA018C922BE02E0F7E
:104F2000D601A60FB11D3C91332341F032E0390F79
:104F3000D501A30FB11D37FDBA958C924CE04E0FF1
:104F40002C0D3D2D311DD9012C91222341F09D5F67
:104F50009501290F311D97FD3A95D9018C92885EF4
:104F6000E80E8DE08E0FD601A40FB11D9C91992300
:104F700031F0D501AE0DB11DE7FCBA958C924EE033
:104F80004E0F8C0D9D2D911DDC018C91882349F0D5
:104F900081E08E0D9501280F311D87FD3A95D901CD
:104FA0008C92E15FD601A40FB11D8C91882341F052
:104FB00082E08E0DD501A80FB11D87FDBA958C92A8
:104FC000EC0DFD2DF11D8081882341F0B3E0EB0E47
:104FD000F501EE0DF11DE7FCFA9580820E945A0F53
:104FE000CB53DF4F99838883C55CD040B601C9534A
:104FF000DF4F8881C75CD0400E94EC12FC80F1102A
:1050000017C06B8061102EC1FD80F11011C06A8045
:10501000611028C18E8181110BC0FF80F11008C082
:105020008981811120C16624639488858111612C56
:10503000F12C19C1611010C07F2CCF53DF4F388184
:10504000C15CD040332309F473CE632E10CDCF530F
:10505000DF4F6882C15CD040772473947F0C24E0DA
:10506000721201C0712C85019601472D692D8E2D7C
:105070000E943D11882309F366246A946E0CE110A6
:1050800001C0612C85019601472D692D862D0E9456
:105090003D118823B1F061106A9485019601472D76
:1050A000692D862D0E943D11882359F061106A9464
:1050B00085019601472D692D862D0E943D11811194
:1050C000BBCFE62CBACF1FE0101BE12FEE0FEE0F87
:1050D000EE0F98E09E0F80E021E02E0FEA0DFB2DF1
:1050E000F11D308131118F5FE22F2913F5CF883008
:1050F00009F07FC0CC53DF4F5881C45CD0405111C0
:1051000041C027E0F22E612F8F2D0E94CF100E9408
:10511000A00F8FEF96E7A1E081509040A040E1F70B
:1051200000C00000FA94BFEFFB12EDCF21E0CC539A
:10513000DF4F2883C45CD04011113EC019821A820F
:105140001B821C821D821E821F8218860E941F10D5
:10515000C5010E94CA120E94A00F9FEFA6E7B1E00E
:105160009150A040B040E1F700C0000053948091FE
:1051700021019091220101969093220180932101B7
:1051800000E0A1CFF12C612F8F2D0E94CF100E9443
:10519000A00F3FEF46E751E0315040405040E1F76B
:1051A00000C00000F39488E0F812EDCFCC53DF4F3D
:1051B0001882C45CD040C0CF3EE0301B20E0812F7D
:1051C000110F990B0197321709F4B8CFE82FE21BA2
:1051D000EE0FEE0FEE0FF0E041E050E04C0F5D1FE0
:1051E000E40FF51F48E0519157834150E1F72F5FDD
:1051F000EACF0F5F003109F066CF51E0CF53DF4FA8
:105200005883C15CD040552009F48ACD611090CDFF
:105210000E947A0C0E94031AC953DF4F0FB6F8940C
:10522000DEBF0FBECDBFDF91CF911F910F91FF90D9
:10523000EF90DF90CF90BF90AF909F908F907F9036
:105240006F905F904F903F902F900895512C98CF82
:10525000662463947F2C82E0CF53DF4F8883C15C48
:10526000D04005CC612C8CEF982E93E0E92EF2CF44
:105270002F923F924F925F926F927F928F929F9266
:10528000AF92BF92CF92DF92EF92FF920F931F9354
:10529000CF93DF93CDB7DEB7C458D1090FB6F894DA
:1052A000DEBF0FBECDBF0E94FD0B5B010E94FD0B58
:1052B0007B011092220110922101FE01319680E0C3
:1052C00011928F5F8038E1F70E941F100E94A00F9B
:1052D000412C93E0592E24E0622E2CEBCE57DF4F69
:1052E0002883C258D040DD24D394CF57DF4F188293
:1052F000C158D040812C00E0912C13E077247394A6
:10530000A895809123018F5F8093230180E40E9400
:105310008F0E8230F9F40E947A0C0E947A0CCC57DE
:10532000DF4F0FB6F894DEBF0FBECDBFDF91CF9138
:105330001F910F91FF90EF90DF90CF90BF90AF90B3
:105340009F908F907F906F905F904F903F902F90A5
:105350000C94031A0E949F0E882309F41FC182E057
:105360000E948F0E8230F9F411160CF41150812F27
:10537000012E000C990BE9E6F0E0EC0FFD1FE80FA1
:10538000F91F2081211109C041E750E04C0F5D1F3A
:10539000840F951FFC01808181111F5F8091230183
:1053A0008F5F8093230184E00E948F0E823069F426
:1053B00080E00E940A0FCE57DF4F8883C258D0404A
:1053C000809123018F5F8093230188E00E948F0EDC
:1053D0008230F9F417300CF41F5F812F012E000C7E
:1053E000990BE9E6F0E0EC0FFD1FE80FF91F2081B3
:1053F000211109C021E730E02C0F3D1F820F931FC0
:10540000FC01808181111150809123018F5F809375
:10541000230180E10E948F0E823059F4011103C0F4
:10542000912E8DE0482E809123018F5F8093230180
:1054300001E080E20E948F0E823009F0D5C10E9407
:105440007810809123018F5F809323010E941F10A9
:10545000CE0101966C01212CCD57DF4FD982C88235
:10546000C358D040312CCD57DF4FE881F981C35864
:10547000D0408191CD57DF4FF983E883C358D040A6
:10548000882321F0622D832D0E94370F3394F8E09A
:105490003F12E9CF28E0C20ED11C239430E1231241
:1054A000DBCFCF57DF4F4881C158D040442341F074
:1054B0006DE0812F0E94370F6EE0812F0E94370F21
:1054C000002321F0642D892D0E94370F0E94A00F28
:1054D000E9E6F0E0EC0FFD1FE10FF11D17FDFA9575
:1054E0008081882309F482C15FEF86E791E0515003
:1054F00080409040E1F700C000006DE0812F0E94E5
:10550000CF100E94A00FEFEFF6E721E0E150F0404E
:105510002040E1F700C00000812F0E9412110E947C
:10552000A00F3FEF46E751E0315040405040E1F7D7
:1055300000C00000812F0E94E7100E94A00F8FEF93
:1055400096E7E1E081509040E040E1F700C00000C4
:10555000812F0E9412110E94A00FFFEF26E731E079
:10556000F15020403040E1F700C00000812F0E9440
:10557000E7100E94A00F4FEF56E781E041505040E6
:105580008040E1F700C00000812F0E9412116DE001
:10559000812F0E94CF100E94A00FBFCEF8940E94CE
:1055A000FD0B6A197B09CE57DF4FF881C258D040F6
:1055B000F617170608F0A9C00E94FD0B5B0178944E
:1055C0008091230163E00E94022F9111CEC024E05C
:1055D00025150CF0539427E030E0052C01C0220F74
:1055E0000A94EAF78091230182958F7063E00E940C
:1055F000022F9111C2C045E06412639487E090E0ED
:10560000062C01C0880F0A94EAF7282B922F909558
:10561000FE01E758FF4F81E7AFEFA80F41E050E0F0
:105620004C0F5D1F4A0F511DDA013C913083A1E000
:10563000B0E0AC0FBD1FA80FB11D3C913183A1E0BC
:10564000A80F41E050E04C0F5D1F4A0F511DDA01D9
:105650003C913283A2E0A80F41E050E04C0F5D1F67
:105660004A0F511DDA013C913383A3E0A80F41E0BA
:1056700050E04C0F5D1F4A0F511DDA013C913483FD
:10568000A4E0A80F41E050E04C0F5D1F4A0F511DF0
:10569000DA013C913583A5E0A80F41E050E04C0FC2
:1056A0005D1F4A0F511DDA013C913683A6E0A80F19
:1056B00041E050E04C0F5D1F4A0F511DDA013C9153
:1056C000378338978850893F09F0A6CF90FF5DC097
:1056D000798291FF5CC07A8292FF5BC07B8293FFEC
:1056E0005AC07C8294FF59C07D8295FF58C07E824B
:1056F00096FF57C07F8227FD56C0788653E658151F
:1057000008F453C08394DD24D394F8940E94FD0BD5
:105710006E197F096333710508F465C00E94FD0BA3
:105720007B017894CF57DF4F8881C158D0408725BF
:10573000CF57DF4F8883C158D040DD24D394002356
:1057400009F451C0E42DEE0FEE0FEE0FE90D21E04C
:1057500030E02C0F3D1F2E0F311DF9018081882371
:1057600079F11082D02E00E03EC0923009F033CFA4
:1057700015140CF030CF5A942ECF923009F03ECF52
:1057800016140CF03BCF6A9439CF1982A2CF1A823B
:10579000A3CF1B82A4CF1C82A5CF1D82A6CF1E82C1
:1057A000A7CF1F82A8CF1886A9CF80912101909101
:1057B000220101969093220180932101812CA3CF95
:1057C000141484F64A94E42DEE0FEE0FEE0FE90D5B
:1057D00041E050E04C0F5D1F4E0F511DFA018081DA
:1057E000D02E8111BECF7894D11030CED12C88CD5F
:1057F0001F920F920FB60F9211242F933F938F9306
:105800009F93AF93BF938091250190912601A09122
:105810002701B09128013091240123E0230F2D3777
:1058200058F50196A11DB11D2093240180932501F7
:1058300090932601A0932701B0932801809129011C
:1058400090912A01A0912B01B0912C010196A11DEC
:10585000B11D8093290190932A01A0932B01B0934D
:105860002C01BF91AF919F918F913F912F910F90FC
:105870000FBE0F901F90189526E8230F0296A11DCA
:10588000B11DD2CFCF93DF93CDB7DEB7E5970FB67B
:10589000F894DEBF0FBECDBF789484B5826084BD1E
:1058A00084B5816084BD85B5826085BD85B5816024
:1058B00085BD80916E00816080936E0010928100A2
:1058C000809181008260809381008091810081605D
:1058D000809381008091800081608093800080911E
:1058E000B10084608093B1008091B00081608093AA
:1058F000B00080917A00846080937A0080917A0071
:10590000826080937A0080917A00816080937A002F
:1059100080917A00806880937A001092C100809113
:105920007C00806480937C0080917A0087688093FB
:105930007A002A9A229A239A259A81E58CBD40986A
:10594000389A89E00E94050F80E00E94050F89E0E7
:105950000E94050F80E00E94050F0E948C0E8BE0D4
:105960000E94050F87E00E94050F8BE00E94050F43
:1059700087E00E94050F0E948C0E8AE00E94050FAE
:105980008AE00E94050F8AE00E94050F8AE00E94CB
:10599000050F0E948C0E8CE00E94050F81E00E9492
:1059A000050F8CE00E94050F81E00E94050F0E9408
:1059B0008C0E2198299A2098289A57985F9A569881
:1059C0005E9A55985D9A54985C9A53985B9A0E9497
:1059D000FD0B0E94FD0B0E94FD0B60931D01709357
:1059E0001E0180931F01909320010E949F0E8AE068
:1059F0000E94E119E2E5F6E12491EEE3F6E18491FB
:105A0000882399F090E0880F991FFC01E851FE4E21
:105A1000A591B491FC01EE5CF94E859194918FB7FC
:105A2000F894EC91E22BEC938FBF80E00E945B0B2B
:105A300062E276E180E00E9427102FEF83ED90E391
:105A4000215080409040E1F700C000001CAA1BAA32
:105A50000E94FD0B2B013C010E945A0F6C01BE01FC
:105A60006D5C7F4FCE01C4960E94840F01E010E070
:105A7000FE0131967F01EDAB809123018F5F809312
:105A8000230183E00E94E1190E949F0E982E882333
:105A900009F482C080910201882341F044E150E082
:105AA00060E070E084E893E00E94090C81E00E94CD
:105AB0008F0E8230C1F48CA9873008F099C08F5FB7
:105AC0008CABBE016D5C7F4FCE01C4960E94840FEB
:105AD0000E94FD0B2B013C01809123018F5F80937D
